:020000040800F2
:100000000020002081090008F5000008F700000822
:1000100000000000000000000000000000000000E0
:10002000000000000000000000000000F9000008CF
:100030000000000000000000FB000008FD000008B8
:10004000C5090008C5090008C5090008C509000858
:10005000C5090008C5090008C5090008C509000848
:10006000C5090008C5090008C5090008C509000838
:10007000C5090008C5090008C5090008C509000828
:10008000C5090008C509000800000000C5090008EE
:10009000C5090008C5090008C5090008C509000808
:1000A000C5090008C5090008C5090008C5090008F8
:1000B000C509000800000000C50900080000000094
:0400C0005FF808F1EC
:1000C400140A00080000002024000020240000205E
:1000D4002C00002082B000230093009B834205DAA9
:1000E400019B01330193009B0133F5E702B0704794
:1000F4007047FEE77047704770470000334B13B5F5
:100104001968012211431960586831490F240140CC
:10011400596018682F490140196018682E49014038
:10012400196058682D4908405860D86AA043D862BD
:100134001C6B2B4820401863586B90430022586373
:100144009A600092019218688022520202431A6057
:1001540018688022920210400190009801300090AB
:100164000198002804D1009CA020C0008442EFD153
:100174001868024000D001220192019A012A24D178
:10018400184A112010605A685A605A685A605A68AE
:10019400114059605968882252030A435A60196809
:1001A400802282400A431A601968084A8801FBD5F4
:1001B400516803208143516051680220014351601A
:1001C40059680C220A40082AFAD113BD00100240D3
:1001D4000CB8FFF8FFFFF6FEFFFFFBFFFFFFC0FFB9
:1001E400ACFEFFFF0020024070B5144D0C236A687A
:1001F400134C1340042B01D0082B02D0114B236065
:1002040012E06E686B68B602360F0236DA0302D467
:100214000D4B5E4307E0E96A0F2319400131094899
:1002240000F05CFB464326606B6822681B061B0FCC
:10023400E3181B79DA40226070BDC046001002400A
:100244000000002000127A0000093D0008B5902348
:10025400DB05984207D180208002012100F0C6FA14
:10026400802080022AE0174B984207D18020C002E8
:10027400012100F0BBFA8020C0021FE0124B98421B
:1002840007D180200003012100F0B0FA8020000390
:1002940014E00E4B984207D180204003012100F066
:1002A400A5FA8020400309E0094B984209D1802037
:1002B400C003012100F09AFA8020C003002100F05D
:1002C40095FA08BD0004004800080048000C0048E6
:1002D40000140048F7B50B68019300230124019A28
:1002E4009C402240A2422CD10D796C1E012C14D8C2
:1002F40087685C000326A640B74387604E79876809
:10030400A640341C3C4384608488944384808A7966
:1003140084889A40224392B282805A000324076858
:100324009440E44327400760076895403D430560D7
:10033400C5682C40C460CD79C46895402A1C22430A
:10034400C2600133102BC9D1F7BD044B02220360F4
:100354000023037142718371C3717047FFFF000072
:10036400802382B05B020193019B0B430193019BA9
:10037400C361C161019BC361C3690193C3690193F3
:1003840002B07047008A0840431E9841C0B27047CB
:10039400008A80B27047808A0840431E9841C0B2E8
:1003A4007047808A80B270478161704701857047C9
:1003B400002A01D0816100E0018570478182704785
:1003C40007230B40C9088900401810B5016A9B0037
:1003D4000F249C40A1430162016A9A40131C0B4301
:1003E400036210BD114B012219681143196058684A
:1003F4000F490140596018680E4901401960186896
:100404000D490140196058680C4901405960D96A86
:100414000F208143D962186B094901401963596B54
:100424009143002259639A607047C046001002400D
:100434000CB8FFF8FFFFF6FEFFFFFBFFFFFFC0FF56
:10044400ACFEFFFF024B00221A7018707047C046C2
:1004540002100240034BF8211A68C0008A4310437B
:100464001860704700100240054B012219680028EB
:1004740001D00A4301E091430A1C1A607047C04648
:1004840000100240034BF8215A6BC0008A4310430A
:100494005863704700100240054B0122596B002835
:1004A40001D00A4301E091430A1C5A637047C046D5
:1004B40000100240054B0422596B002802D09143DE
:1004C4000A1C00E00A435A637047C0460010024009
:1004D400064B01211A6A8A431A621A6A04218A4362
:1004E4001A621A6A104318627047C046001002402C
:1004F400044B18211A6A8A431A621A6A1043186252
:100504007047C04600100240054B0122596A00287A
:1005140001D00A4301E091430A1C5A627047C04665
:1005240000100240054B10B5054A5C6822405A6031
:100534005A6811430843586010BDC0460010024079
:10054400FFFFC2FF054B1968002803D08022520424
:100554000A4301E0024A0A401A6070470010024050
:10056400FFFFFFFE034B0F21DA6A8A431043D86270
:100574007047C04600100240054B1968002803D09C
:10058400802212030A4301E0024A0A401A607047BB
:1005940000100240FFFFF7FF014B18707047C04680
:1005A40007100240034B03215A688A4310435860E2
:1005B4007047C04600100240024B58680C23184094
:1005C4007047C04600100240034BF0215A688A432A
:1005D400104358607047C04600100240034B044A61
:1005E40059680A40104358607047C04600100240E2
:1005F400FFF8FFFF084B094A59680A405A605A68D5
:1006040081B20A435A60196B054A000C0A401A6306
:100614001A6B10431863704700100240FFBFFFFFBE
:10062400FFFEFFFF044B40211A6B8A431A631A6BC7
:10063400104318637047C04600100240044B102159
:100644001A6B8A431A631A6B104318637047C046C7
:1006540000100240044B03211A6B8A431A631A6B7D
:10066400104318637047C0460010024070B5334D04
:100674000C236A68041C1340042B01D0082B02D0FD
:100684002F4B236012E06E686B68B602360F023699
:10069400D90302D42B4B5E4307E0E96A0F231940C8
:1006A4000131274800F01AF9464326606A68264B50
:1006B4001206120F20689A5C011CD14061600A1C6A
:1006C40069684905490F5B5CDA40A2602B6BD90568
:1006D40001D41E4B06E0194B5B68590401D453083E
:1006E40000E09308E3602B6B590601D4184B01E03A
:1006F40080231B0223612B6BD90602D4104B636148
:1007040000E060612D6B03230C491D4201D1A261FD
:1007140012E00A6B1A40012A01D1A0610CE00A6BB5
:100724001A40022A02D180231B0204E00A6B134000
:10073400032B01D1024BA36170BDC04600100240DF
:1007440000127A0000093D0014000020809FD500AB
:1007540012800000024B1A6A104318627047C046A8
:1007640000100240054B196A002803D080221202AF
:100774000A4301E0024A0A401A627047001002402C
:10078400FF7FFFFF054B196A002803D08022520225
:100794000A4301E0024A0A401A627047001002400C
:1007A400FFFFFEFF044B5A69002902D01043586131
:1007B40001E082435A61704700100240044B9A6979
:1007C400002902D01043986101E082439A61704786
:1007D40000100240044BDA69002902D01043D861AA
:1007E40001E08243DA61704700100240044B9A6AC8
:1007F400002902D01043986201E082439A62704754
:1008040000100240044BDA68002902D01043D8607B
:1008140001E08243DA60704700100240044B1A6919
:10082400002902D01043186101E082431A61704725
:1008340000100240044B1A78002902D010431870AB
:1008440001E082431A7070470910024041090A4AC4
:1008540001D1136808E0012901D1136A04E00229D7
:1008640001D1536A00E0536B1F221040C340181C8F
:10087400012210407047C0460010024007B5002313
:1008840001931120FFF7E2FF019B01330193019AC9
:10089400A023DB009A4201D00028F2D01120FFF7F8
:1008A400D5FF431E9841C0B20EBD034B8022596A46
:1008B40052040A435A62704700100240034B9B687B
:1008C4001840431E9841C0B27047C0460010024011
:1008D400014B18707047C0460A100240002934D0FA
:1008E4000123002210B488422CD301242407A142FE
:1008F40004D2814202D209011B01F8E7E400A142BB
:1009040004D2814202D249005B00F8E7884201D355
:10091400401A1A434C08A04202D3001B5C0822432D
:100924008C08A04202D3001B9C082243CC08A0429E
:1009340002D3001BDC082243002803D01B0901D08A
:100944000909E3E7101C10BC7047002801D00020FF
:10095400C04307B4024802A14018029003BDC04638
:10096400190000000029F0D003B5FFF7B9FF0EBC51
:100974004243891A1847C0467047C046002103E025
:100984000A4B5B584350043109480A4B42189A42B7
:10099400F6D3094A02E0002313600432074B9A425B
:1009A400F9D3FFF7ABFB00F00DF87047140A000809
:1009B4000000002024000020240000202C0000203F
:1009C400FEE70000802038B500030121FFF7EAFEAE
:1009D4000C49C0239B000B6001230B7103220023ED
:1009E40009488B714A71CB71FFF774FC064CC02522
:1009F400AD00A5610548FFF76DFB25850348FFF7AA
:100A040069FBF3E7240000200008004820A1070048
:100A1400006CDC020000000000000000010203047E
:100A24000607080900000000010203040102030490
:040A340006070809A0
:040000050800098165
:00000001FF
